{
  "_format": "hh-sol-artifact-1",
  "contractName": "CarbonCredit",
  "sourceName": "contracts/CarbonCredit.sol",
  "abi": [
    {
      "inputs": [],
      "stateMutability": "nonpayable",
      "type": "constructor"
    },
    {
      "anonymous": false,
      "inputs": [
        {
          "indexed": true,
          "internalType": "address",
          "name": "owner",
          "type": "address"
        },
        {
          "indexed": true,
          "internalType": "address",
          "name": "approved",
          "type": "address"
        },
        {
          "indexed": true,
          "internalType": "uint256",
          "name": "tokenId",
          "type": "uint256"
        }
      ],
      "name": "Approval",
      "type": "event"
    },
    {
      "anonymous": false,
      "inputs": [
        {
          "indexed": true,
          "internalType": "address",
          "name": "owner",
          "type": "address"
        },
        {
          "indexed": true,
          "internalType": "address",
          "name": "operator",
          "type": "address"
        },
        {
          "indexed": false,
          "internalType": "bool",
          "name": "approved",
          "type": "bool"
        }
      ],
      "name": "ApprovalForAll",
      "type": "event"
    },
    {
      "anonymous": false,
      "inputs": [
        {
          "indexed": false,
          "internalType": "uint256",
          "name": "_fromTokenId",
          "type": "uint256"
        },
        {
          "indexed": false,
          "internalType": "uint256",
          "name": "_toTokenId",
          "type": "uint256"
        }
      ],
      "name": "BatchMetadataUpdate",
      "type": "event"
    },
    {
      "anonymous": false,
      "inputs": [
        {
          "indexed": false,
          "internalType": "uint256",
          "name": "tokenId",
          "type": "uint256"
        }
      ],
      "name": "CarbonCreditMinted",
      "type": "event"
    },
    {
      "anonymous": false,
      "inputs": [
        {
          "indexed": false,
          "internalType": "uint256",
          "name": "tokenId",
          "type": "uint256"
        }
      ],
      "name": "CarbonMinted",
      "type": "event"
    },
    {
      "anonymous": false,
      "inputs": [
        {
          "indexed": false,
          "internalType": "uint256",
          "name": "_tokenId",
          "type": "uint256"
        }
      ],
      "name": "MetadataUpdate",
      "type": "event"
    },
    {
      "anonymous": false,
      "inputs": [
        {
          "indexed": true,
          "internalType": "address",
          "name": "previousOwner",
          "type": "address"
        },
        {
          "indexed": true,
          "internalType": "address",
          "name": "newOwner",
          "type": "address"
        }
      ],
      "name": "OwnershipTransferred",
      "type": "event"
    },
    {
      "anonymous": false,
      "inputs": [
        {
          "indexed": true,
          "internalType": "address",
          "name": "from",
          "type": "address"
        },
        {
          "indexed": true,
          "internalType": "address",
          "name": "to",
          "type": "address"
        },
        {
          "indexed": true,
          "internalType": "uint256",
          "name": "tokenId",
          "type": "uint256"
        }
      ],
      "name": "Transfer",
      "type": "event"
    },
    {
      "inputs": [
        {
          "internalType": "address",
          "name": "to",
          "type": "address"
        },
        {
          "internalType": "uint256",
          "name": "tokenId",
          "type": "uint256"
        }
      ],
      "name": "approve",
      "outputs": [],
      "stateMutability": "nonpayable",
      "type": "function"
    },
    {
      "inputs": [
        {
          "internalType": "address",
          "name": "owner",
          "type": "address"
        }
      ],
      "name": "balanceOf",
      "outputs": [
        {
          "internalType": "uint256",
          "name": "",
          "type": "uint256"
        }
      ],
      "stateMutability": "view",
      "type": "function"
    },
    {
      "inputs": [
        {
          "internalType": "uint256",
          "name": "",
          "type": "uint256"
        }
      ],
      "name": "creditData",
      "outputs": [
        {
          "internalType": "string",
          "name": "projectName",
          "type": "string"
        },
        {
          "internalType": "string",
          "name": "description",
          "type": "string"
        },
        {
          "internalType": "uint256",
          "name": "amount",
          "type": "uint256"
        }
      ],
      "stateMutability": "view",
      "type": "function"
    },
    {
      "inputs": [
        {
          "internalType": "uint256",
          "name": "tokenId",
          "type": "uint256"
        }
      ],
      "name": "getApproved",
      "outputs": [
        {
          "internalType": "address",
          "name": "",
          "type": "address"
        }
      ],
      "stateMutability": "view",
      "type": "function"
    },
    {
      "inputs": [
        {
          "internalType": "address",
          "name": "owner",
          "type": "address"
        },
        {
          "internalType": "address",
          "name": "operator",
          "type": "address"
        }
      ],
      "name": "isApprovedForAll",
      "outputs": [
        {
          "internalType": "bool",
          "name": "",
          "type": "bool"
        }
      ],
      "stateMutability": "view",
      "type": "function"
    },
    {
      "inputs": [
        {
          "internalType": "string",
          "name": "projectName",
          "type": "string"
        },
        {
          "internalType": "string",
          "name": "description",
          "type": "string"
        },
        {
          "internalType": "uint256",
          "name": "amount",
          "type": "uint256"
        }
      ],
      "name": "mintCarbonCredit",
      "outputs": [
        {
          "internalType": "uint256",
          "name": "",
          "type": "uint256"
        }
      ],
      "stateMutability": "nonpayable",
      "type": "function"
    },
    {
      "inputs": [],
      "name": "name",
      "outputs": [
        {
          "internalType": "string",
          "name": "",
          "type": "string"
        }
      ],
      "stateMutability": "view",
      "type": "function"
    },
    {
      "inputs": [],
      "name": "nextTokenId",
      "outputs": [
        {
          "internalType": "uint256",
          "name": "",
          "type": "uint256"
        }
      ],
      "stateMutability": "view",
      "type": "function"
    },
    {
      "inputs": [],
      "name": "owner",
      "outputs": [
        {
          "internalType": "address",
          "name": "",
          "type": "address"
        }
      ],
      "stateMutability": "view",
      "type": "function"
    },
    {
      "inputs": [
        {
          "internalType": "uint256",
          "name": "tokenId",
          "type": "uint256"
        }
      ],
      "name": "ownerOf",
      "outputs": [
        {
          "internalType": "address",
          "name": "",
          "type": "address"
        }
      ],
      "stateMutability": "view",
      "type": "function"
    },
    {
      "inputs": [],
      "name": "renounceOwnership",
      "outputs": [],
      "stateMutability": "nonpayable",
      "type": "function"
    },
    {
      "inputs": [
        {
          "internalType": "address",
          "name": "from",
          "type": "address"
        },
        {
          "internalType": "address",
          "name": "to",
          "type": "address"
        },
        {
          "internalType": "uint256",
          "name": "tokenId",
          "type": "uint256"
        }
      ],
      "name": "safeTransferFrom",
      "outputs": [],
      "stateMutability": "nonpayable",
      "type": "function"
    },
    {
      "inputs": [
        {
          "internalType": "address",
          "name": "from",
          "type": "address"
        },
        {
          "internalType": "address",
          "name": "to",
          "type": "address"
        },
        {
          "internalType": "uint256",
          "name": "tokenId",
          "type": "uint256"
        },
        {
          "internalType": "bytes",
          "name": "data",
          "type": "bytes"
        }
      ],
      "name": "safeTransferFrom",
      "outputs": [],
      "stateMutability": "nonpayable",
      "type": "function"
    },
    {
      "inputs": [
        {
          "internalType": "address",
          "name": "operator",
          "type": "address"
        },
        {
          "internalType": "bool",
          "name": "approved",
          "type": "bool"
        }
      ],
      "name": "setApprovalForAll",
      "outputs": [],
      "stateMutability": "nonpayable",
      "type": "function"
    },
    {
      "inputs": [
        {
          "internalType": "bytes4",
          "name": "interfaceId",
          "type": "bytes4"
        }
      ],
      "name": "supportsInterface",
      "outputs": [
        {
          "internalType": "bool",
          "name": "",
          "type": "bool"
        }
      ],
      "stateMutability": "view",
      "type": "function"
    },
    {
      "inputs": [],
      "name": "symbol",
      "outputs": [
        {
          "internalType": "string",
          "name": "",
          "type": "string"
        }
      ],
      "stateMutability": "view",
      "type": "function"
    },
    {
      "inputs": [
        {
          "internalType": "uint256",
          "name": "tokenId",
          "type": "uint256"
        }
      ],
      "name": "tokenURI",
      "outputs": [
        {
          "internalType": "string",
          "name": "",
          "type": "string"
        }
      ],
      "stateMutability": "view",
      "type": "function"
    },
    {
      "inputs": [
        {
          "internalType": "address",
          "name": "from",
          "type": "address"
        },
        {
          "internalType": "address",
          "name": "to",
          "type": "address"
        },
        {
          "internalType": "uint256",
          "name": "tokenId",
          "type": "uint256"
        }
      ],
      "name": "transferFrom",
      "outputs": [],
      "stateMutability": "nonpayable",
      "type": "function"
    },
    {
      "inputs": [
        {
          "internalType": "address",
          "name": "newOwner",
          "type": "address"
        }
      ],
      "name": "transferOwnership",
      "outputs": [],
      "stateMutability": "nonpayable",
      "type": "function"
    }
  ],
  "bytecode": "0x60806040523480156200001157600080fd5b506040518060400160405280600c81526020017f436172626f6e43726564697400000000000000000000000000000000000000008152506040518060400160405280600281526020017f434300000000000000000000000000000000000000000000000000000000000081525081600090816200008f919062000454565b508060019081620000a1919062000454565b505050620000c4620000b86200010c60201b60201c565b6200011460201b60201c565b60006008819055507f26761adf829bd6eefda07a2b1095e763100860e20c71a6b1e58873491b49700d6000604051620000fe91906200057e565b60405180910390a16200059b565b600033905090565b6000600760009054906101000a900473ffffffffffffffffffffffffffffffffffffffff16905081600760006101000a81548173ffffffffffffffffffffffffffffffffffffffff021916908373ffffffffffffffffffffffffffffffffffffffff1602179055508173ffffffffffffffffffffffffffffffffffffffff168173ffffffffffffffffffffffffffffffffffffffff167f8be0079c531659141344cd1fd0a4f28419497f9722a3daafe3b4186f6b6457e060405160405180910390a35050565b600081519050919050565b7f4e487b7100000000000000000000000000000000000000000000000000000000600052604160045260246000fd5b7f4e487b7100000000000000000000000000000000000000000000000000000000600052602260045260246000fd5b600060028204905060018216806200025c57607f821691505b60208210810362000272576200027162000214565b5b50919050565b60008190508160005260206000209050919050565b60006020601f8301049050919050565b600082821b905092915050565b600060088302620002dc7fffffffffffffffffffffffffffffffffffffffffffffffffffffffffffffffff826200029d565b620002e886836200029d565b95508019841693508086168417925050509392505050565b6000819050919050565b6000819050919050565b6000620003356200032f620003298462000300565b6200030a565b62000300565b9050919050565b6000819050919050565b620003518362000314565b6200036962000360826200033c565b848454620002aa565b825550505050565b600090565b6200038062000371565b6200038d81848462000346565b505050565b5b81811015620003b557620003a960008262000376565b60018101905062000393565b5050565b601f8211156200040457620003ce8162000278565b620003d9846200028d565b81016020851015620003e9578190505b62000401620003f8856200028d565b83018262000392565b50505b505050565b600082821c905092915050565b6000620004296000198460080262000409565b1980831691505092915050565b600062000444838362000416565b9150826002028217905092915050565b6200045f82620001da565b67ffffffffffffffff8111156200047b576200047a620001e5565b5b62000487825462000243565b62000494828285620003b9565b600060209050601f831160018114620004cc5760008415620004b7578287015190505b620004c3858262000436565b86555062000533565b601f198416620004dc8662000278565b60005b828110156200050657848901518255600182019150602085019450602081019050620004df565b8683101562000526578489015162000522601f89168262000416565b8355505b6001600288020188555050505b505050505050565b6000819050919050565b600062000566620005606200055a846200053b565b6200030a565b62000300565b9050919050565b620005788162000545565b82525050565b60006020820190506200059560008301846200056d565b92915050565b61321880620005ab6000396000f3fe608060405234801561001057600080fd5b50600436106101215760003560e01c8063715018a6116100ad578063b88d4fde11610071578063b88d4fde14610308578063c87b56dd14610324578063e985e9c514610354578063f2fde38b14610384578063fbe406e3146103a057610121565b8063715018a61461028857806375794a3c146102925780638da5cb5b146102b057806395d89b41146102ce578063a22cb465146102ec57610121565b806313b42f40116100f457806313b42f40146101c057806323b872dd146101f057806342842e0e1461020c5780636352211e1461022857806370a082311461025857610121565b806301ffc9a71461012657806306fdde0314610156578063081812fc14610174578063095ea7b3146101a4575b600080fd5b610140600480360381019061013b9190611eb2565b6103d2565b60405161014d9190611efa565b60405180910390f35b61015e610433565b60405161016b9190611fa5565b60405180910390f35b61018e60048036038101906101899190611ffd565b6104c5565b60405161019b919061206b565b60405180910390f35b6101be60048036038101906101b991906120b2565b61050b565b005b6101da60048036038101906101d59190612227565b610622565b6040516101e791906122c1565b60405180910390f35b61020a600480360381019061020591906122dc565b61077c565b005b610226600480360381019061022191906122dc565b6107dc565b005b610242600480360381019061023d9190611ffd565b6107fc565b60405161024f919061206b565b60405180910390f35b610272600480360381019061026d919061232f565b610882565b60405161027f91906122c1565b60405180910390f35b610290610939565b005b61029a61094d565b6040516102a791906122c1565b60405180910390f35b6102b8610953565b6040516102c5919061206b565b60405180910390f35b6102d661097d565b6040516102e39190611fa5565b60405180910390f35b61030660048036038101906103019190612388565b610a0f565b005b610322600480360381019061031d9190612469565b610a25565b005b61033e60048036038101906103399190611ffd565b610a87565b60405161034b9190611fa5565b60405180910390f35b61036e600480360381019061036991906124ec565b610b99565b60405161037b9190611efa565b60405180910390f35b61039e6004803603810190610399919061232f565b610c2d565b005b6103ba60048036038101906103b59190611ffd565b610cb0565b6040516103c99392919061252c565b60405180910390f35b6000634906490660e01b7bffffffffffffffffffffffffffffffffffffffffffffffffffffffff1916827bffffffffffffffffffffffffffffffffffffffffffffffffffffffff1916148061042c575061042b82610dea565b5b9050919050565b606060008054610442906125a0565b80601f016020809104026020016040519081016040528092919081815260200182805461046e906125a0565b80156104bb5780601f10610490576101008083540402835291602001916104bb565b820191906000526020600020905b81548152906001019060200180831161049e57829003601f168201915b5050505050905090565b60006104d082610ecc565b6004600083815260200190815260200160002060009054906101000a900473ffffffffffffffffffffffffffffffffffffffff169050919050565b6000610516826107fc565b90508073ffffffffffffffffffffffffffffffffffffffff168373ffffffffffffffffffffffffffffffffffffffff1603610586576040517f08c379a000000000000000000000000000000000000000000000000000000000815260040161057d90612643565b60405180910390fd5b8073ffffffffffffffffffffffffffffffffffffffff166105a5610f17565b73ffffffffffffffffffffffffffffffffffffffff1614806105d457506105d3816105ce610f17565b610b99565b5b610613576040517f08c379a000000000000000000000000000000000000000000000000000000000815260040161060a906126d5565b60405180910390fd5b61061d8383610f1f565b505050565b600080845103610667576040517f08c379a000000000000000000000000000000000000000000000000000000000815260040161065e90612741565b60405180910390fd5b600082116106aa576040517f08c379a00000000000000000000000000000000000000000000000000000000081526004016106a1906127d3565b60405180910390fd5b600060085490506106bb3382610fd8565b6040518060600160405280868152602001858152602001848152506009600083815260200190815260200160002060008201518160000190816106fe919061299f565b506020820151816001019081610714919061299f565b50604082015181600201559050506008600081548092919061073590612aa0565b91905055507f9e816ae4b241a41b4895127101bbd357bde446af8a6cb53d4089175d80b4f6a58160405161076991906122c1565b60405180910390a1809150509392505050565b61078d610787610f17565b82610ff6565b6107cc576040517f08c379a00000000000000000000000000000000000000000000000000000000081526004016107c390612b5a565b60405180910390fd5b6107d783838361108b565b505050565b6107f783838360405180602001604052806000815250610a25565b505050565b60008061080883611384565b9050600073ffffffffffffffffffffffffffffffffffffffff168173ffffffffffffffffffffffffffffffffffffffff1603610879576040517f08c379a000000000000000000000000000000000000000000000000000000000815260040161087090612bc6565b60405180910390fd5b80915050919050565b60008073ffffffffffffffffffffffffffffffffffffffff168273ffffffffffffffffffffffffffffffffffffffff16036108f2576040517f08c379a00000000000000000000000000000000000000000000000000000000081526004016108e990612c58565b60405180910390fd5b600360008373ffffffffffffffffffffffffffffffffffffffff1673ffffffffffffffffffffffffffffffffffffffff168152602001908152602001600020549050919050565b6109416113c1565b61094b600061143f565b565b60085481565b6000600760009054906101000a900473ffffffffffffffffffffffffffffffffffffffff16905090565b60606001805461098c906125a0565b80601f01602080910402602001604051908101604052809291908181526020018280546109b8906125a0565b8015610a055780601f106109da57610100808354040283529160200191610a05565b820191906000526020600020905b8154815290600101906020018083116109e857829003601f168201915b5050505050905090565b610a21610a1a610f17565b8383611505565b5050565b610a36610a30610f17565b83610ff6565b610a75576040517f08c379a0000000000000000000000000000000000000000000000000000000008152600401610a6c90612b5a565b60405180910390fd5b610a8184848484611671565b50505050565b6060610a9282610ecc565b6000600660008481526020019081526020016000208054610ab2906125a0565b80601f0160208091040260200160405190810160405280929190818152602001828054610ade906125a0565b8015610b2b5780601f10610b0057610100808354040283529160200191610b2b565b820191906000526020600020905b815481529060010190602001808311610b0e57829003601f168201915b505050505090506000610b3c6116cd565b90506000815103610b51578192505050610b94565b600082511115610b86578082604051602001610b6e929190612cb4565b60405160208183030381529060405292505050610b94565b610b8f846116e4565b925050505b919050565b6000600560008473ffffffffffffffffffffffffffffffffffffffff1673ffffffffffffffffffffffffffffffffffffffff16815260200190815260200160002060008373ffffffffffffffffffffffffffffffffffffffff1673ffffffffffffffffffffffffffffffffffffffff16815260200190815260200160002060009054906101000a900460ff16905092915050565b610c356113c1565b600073ffffffffffffffffffffffffffffffffffffffff168173ffffffffffffffffffffffffffffffffffffffff1603610ca4576040517f08c379a0000000000000000000000000000000000000000000000000000000008152600401610c9b90612d4a565b60405180910390fd5b610cad8161143f565b50565b6009602052806000526040600020600091509050806000018054610cd3906125a0565b80601f0160208091040260200160405190810160405280929190818152602001828054610cff906125a0565b8015610d4c5780601f10610d2157610100808354040283529160200191610d4c565b820191906000526020600020905b815481529060010190602001808311610d2f57829003601f168201915b505050505090806001018054610d61906125a0565b80601f0160208091040260200160405190810160405280929190818152602001828054610d8d906125a0565b8015610dda5780601f10610daf57610100808354040283529160200191610dda565b820191906000526020600020905b815481529060010190602001808311610dbd57829003601f168201915b5050505050908060020154905083565b60007f80ac58cd000000000000000000000000000000000000000000000000000000007bffffffffffffffffffffffffffffffffffffffffffffffffffffffff1916827bffffffffffffffffffffffffffffffffffffffffffffffffffffffff19161480610eb557507f5b5e139f000000000000000000000000000000000000000000000000000000007bffffffffffffffffffffffffffffffffffffffffffffffffffffffff1916827bffffffffffffffffffffffffffffffffffffffffffffffffffffffff1916145b80610ec55750610ec48261174c565b5b9050919050565b610ed5816117b6565b610f14576040517f08c379a0000000000000000000000000000000000000000000000000000000008152600401610f0b90612bc6565b60405180910390fd5b50565b600033905090565b816004600083815260200190815260200160002060006101000a81548173ffffffffffffffffffffffffffffffffffffffff021916908373ffffffffffffffffffffffffffffffffffffffff160217905550808273ffffffffffffffffffffffffffffffffffffffff16610f92836107fc565b73ffffffffffffffffffffffffffffffffffffffff167f8c5be1e5ebec7d5bd14f71427d1e84f3dd0314c0f7b2291e5b200ac8c7c3b92560405160405180910390a45050565b610ff28282604051806020016040528060008152506117f7565b5050565b600080611002836107fc565b90508073ffffffffffffffffffffffffffffffffffffffff168473ffffffffffffffffffffffffffffffffffffffff16148061104457506110438185610b99565b5b8061108257508373ffffffffffffffffffffffffffffffffffffffff1661106a846104c5565b73ffffffffffffffffffffffffffffffffffffffff16145b91505092915050565b8273ffffffffffffffffffffffffffffffffffffffff166110ab826107fc565b73ffffffffffffffffffffffffffffffffffffffff1614611101576040517f08c379a00000000000000000000000000000000000000000000000000000000081526004016110f890612ddc565b60405180910390fd5b600073ffffffffffffffffffffffffffffffffffffffff168273ffffffffffffffffffffffffffffffffffffffff1603611170576040517f08c379a000000000000000000000000000000000000000000000000000000000815260040161116790612e6e565b60405180910390fd5b61117d8383836001611852565b8273ffffffffffffffffffffffffffffffffffffffff1661119d826107fc565b73ffffffffffffffffffffffffffffffffffffffff16146111f3576040517f08c379a00000000000000000000000000000000000000000000000000000000081526004016111ea90612ddc565b60405180910390fd5b6004600082815260200190815260200160002060006101000a81549073ffffffffffffffffffffffffffffffffffffffff02191690556001600360008573ffffffffffffffffffffffffffffffffffffffff1673ffffffffffffffffffffffffffffffffffffffff168152602001908152602001600020600082825403925050819055506001600360008473ffffffffffffffffffffffffffffffffffffffff1673ffffffffffffffffffffffffffffffffffffffff16815260200190815260200160002060008282540192505081905550816002600083815260200190815260200160002060006101000a81548173ffffffffffffffffffffffffffffffffffffffff021916908373ffffffffffffffffffffffffffffffffffffffff160217905550808273ffffffffffffffffffffffffffffffffffffffff168473ffffffffffffffffffffffffffffffffffffffff167fddf252ad1be2c89b69c2b068fc378daa952ba7f163c4a11628f55a4df523b3ef60405160405180910390a461137f8383836001611858565b505050565b60006002600083815260200190815260200160002060009054906101000a900473ffffffffffffffffffffffffffffffffffffffff169050919050565b6113c9610f17565b73ffffffffffffffffffffffffffffffffffffffff166113e7610953565b73ffffffffffffffffffffffffffffffffffffffff161461143d576040517f08c379a000000000000000000000000000000000000000000000000000000000815260040161143490612eda565b60405180910390fd5b565b6000600760009054906101000a900473ffffffffffffffffffffffffffffffffffffffff16905081600760006101000a81548173ffffffffffffffffffffffffffffffffffffffff021916908373ffffffffffffffffffffffffffffffffffffffff1602179055508173ffffffffffffffffffffffffffffffffffffffff168173ffffffffffffffffffffffffffffffffffffffff167f8be0079c531659141344cd1fd0a4f28419497f9722a3daafe3b4186f6b6457e060405160405180910390a35050565b8173ffffffffffffffffffffffffffffffffffffffff168373ffffffffffffffffffffffffffffffffffffffff1603611573576040517f08c379a000000000000000000000000000000000000000000000000000000000815260040161156a90612f46565b60405180910390fd5b80600560008573ffffffffffffffffffffffffffffffffffffffff1673ffffffffffffffffffffffffffffffffffffffff16815260200190815260200160002060008473ffffffffffffffffffffffffffffffffffffffff1673ffffffffffffffffffffffffffffffffffffffff16815260200190815260200160002060006101000a81548160ff0219169083151502179055508173ffffffffffffffffffffffffffffffffffffffff168373ffffffffffffffffffffffffffffffffffffffff167f17307eab39ab6107e8899845ad3d59bd9653f200f220920489ca2b5937696c31836040516116649190611efa565b60405180910390a3505050565b61167c84848461108b565b6116888484848461185e565b6116c7576040517f08c379a00000000000000000000000000000000000000000000000000000000081526004016116be90612fd8565b60405180910390fd5b50505050565b606060405180602001604052806000815250905090565b60606116ef82610ecc565b60006116f96116cd565b905060008151116117195760405180602001604052806000815250611744565b80611723846119e5565b604051602001611734929190612cb4565b6040516020818303038152906040525b915050919050565b60007f01ffc9a7000000000000000000000000000000000000000000000000000000007bffffffffffffffffffffffffffffffffffffffffffffffffffffffff1916827bffffffffffffffffffffffffffffffffffffffffffffffffffffffff1916149050919050565b60008073ffffffffffffffffffffffffffffffffffffffff166117d883611384565b73ffffffffffffffffffffffffffffffffffffffff1614159050919050565b6118018383611ab3565b61180e600084848461185e565b61184d576040517f08c379a000000000000000000000000000000000000000000000000000000000815260040161184490612fd8565b60405180910390fd5b505050565b50505050565b50505050565b600061187f8473ffffffffffffffffffffffffffffffffffffffff16611cd0565b156119d8578373ffffffffffffffffffffffffffffffffffffffff1663150b7a026118a8610f17565b8786866040518563ffffffff1660e01b81526004016118ca949392919061304d565b6020604051808303816000875af192505050801561190657506040513d601f19601f8201168201806040525081019061190391906130ae565b60015b611988573d8060008114611936576040519150601f19603f3d011682016040523d82523d6000602084013e61193b565b606091505b506000815103611980576040517f08c379a000000000000000000000000000000000000000000000000000000000815260040161197790612fd8565b60405180910390fd5b805181602001fd5b63150b7a0260e01b7bffffffffffffffffffffffffffffffffffffffffffffffffffffffff1916817bffffffffffffffffffffffffffffffffffffffffffffffffffffffff1916149150506119dd565b600190505b949350505050565b6060600060016119f484611cf3565b01905060008167ffffffffffffffff811115611a1357611a126120fc565b5b6040519080825280601f01601f191660200182016040528015611a455781602001600182028036833780820191505090505b509050600082602001820190505b600115611aa8578080600190039150507f3031323334353637383961626364656600000000000000000000000000000000600a86061a8153600a8581611a9c57611a9b6130db565b5b04945060008503611a53575b819350505050919050565b600073ffffffffffffffffffffffffffffffffffffffff168273ffffffffffffffffffffffffffffffffffffffff1603611b22576040517f08c379a0000000000000000000000000000000000000000000000000000000008152600401611b1990613156565b60405180910390fd5b611b2b816117b6565b15611b6b576040517f08c379a0000000000000000000000000000000000000000000000000000000008152600401611b62906131c2565b60405180910390fd5b611b79600083836001611852565b611b82816117b6565b15611bc2576040517f08c379a0000000000000000000000000000000000000000000000000000000008152600401611bb9906131c2565b60405180910390fd5b6001600360008473ffffffffffffffffffffffffffffffffffffffff1673ffffffffffffffffffffffffffffffffffffffff16815260200190815260200160002060008282540192505081905550816002600083815260200190815260200160002060006101000a81548173ffffffffffffffffffffffffffffffffffffffff021916908373ffffffffffffffffffffffffffffffffffffffff160217905550808273ffffffffffffffffffffffffffffffffffffffff16600073ffffffffffffffffffffffffffffffffffffffff167fddf252ad1be2c89b69c2b068fc378daa952ba7f163c4a11628f55a4df523b3ef60405160405180910390a4611ccc600083836001611858565b5050565b6000808273ffffffffffffffffffffffffffffffffffffffff163b119050919050565b600080600090507a184f03e93ff9f4daa797ed6e38ed64bf6a1f0100000000000000008310611d51577a184f03e93ff9f4daa797ed6e38ed64bf6a1f0100000000000000008381611d4757611d466130db565b5b0492506040810190505b6d04ee2d6d415b85acef81000000008310611d8e576d04ee2d6d415b85acef81000000008381611d8457611d836130db565b5b0492506020810190505b662386f26fc100008310611dbd57662386f26fc100008381611db357611db26130db565b5b0492506010810190505b6305f5e1008310611de6576305f5e1008381611ddc57611ddb6130db565b5b0492506008810190505b6127108310611e0b576127108381611e0157611e006130db565b5b0492506004810190505b60648310611e2e5760648381611e2457611e236130db565b5b0492506002810190505b600a8310611e3d576001810190505b80915050919050565b6000604051905090565b600080fd5b600080fd5b60007fffffffff0000000000000000000000000000000000000000000000000000000082169050919050565b611e8f81611e5a565b8114611e9a57600080fd5b50565b600081359050611eac81611e86565b92915050565b600060208284031215611ec857611ec7611e50565b5b6000611ed684828501611e9d565b91505092915050565b60008115159050919050565b611ef481611edf565b82525050565b6000602082019050611f0f6000830184611eeb565b92915050565b600081519050919050565b600082825260208201905092915050565b60005b83811015611f4f578082015181840152602081019050611f34565b60008484015250505050565b6000601f19601f8301169050919050565b6000611f7782611f15565b611f818185611f20565b9350611f91818560208601611f31565b611f9a81611f5b565b840191505092915050565b60006020820190508181036000830152611fbf8184611f6c565b905092915050565b6000819050919050565b611fda81611fc7565b8114611fe557600080fd5b50565b600081359050611ff781611fd1565b92915050565b60006020828403121561201357612012611e50565b5b600061202184828501611fe8565b91505092915050565b600073ffffffffffffffffffffffffffffffffffffffff82169050919050565b60006120558261202a565b9050919050565b6120658161204a565b82525050565b6000602082019050612080600083018461205c565b92915050565b61208f8161204a565b811461209a57600080fd5b50565b6000813590506120ac81612086565b92915050565b600080604083850312156120c9576120c8611e50565b5b60006120d78582860161209d565b92505060206120e885828601611fe8565b9150509250929050565b600080fd5b600080fd5b7f4e487b7100000000000000000000000000000000000000000000000000000000600052604160045260246000fd5b61213482611f5b565b810181811067ffffffffffffffff82111715612153576121526120fc565b5b80604052505050565b6000612166611e46565b9050612172828261212b565b919050565b600067ffffffffffffffff821115612192576121916120fc565b5b61219b82611f5b565b9050602081019050919050565b82818337600083830152505050565b60006121ca6121c584612177565b61215c565b9050828152602081018484840111156121e6576121e56120f7565b5b6121f18482856121a8565b509392505050565b600082601f83011261220e5761220d6120f2565b5b813561221e8482602086016121b7565b91505092915050565b6000806000606084860312156122405761223f611e50565b5b600084013567ffffffffffffffff81111561225e5761225d611e55565b5b61226a868287016121f9565b935050602084013567ffffffffffffffff81111561228b5761228a611e55565b5b612297868287016121f9565b92505060406122a886828701611fe8565b9150509250925092565b6122bb81611fc7565b82525050565b60006020820190506122d660008301846122b2565b92915050565b6000806000606084860312156122f5576122f4611e50565b5b60006123038682870161209d565b93505060206123148682870161209d565b925050604061232586828701611fe8565b9150509250925092565b60006020828403121561234557612344611e50565b5b60006123538482850161209d565b91505092915050565b61236581611edf565b811461237057600080fd5b50565b6000813590506123828161235c565b92915050565b6000806040838503121561239f5761239e611e50565b5b60006123ad8582860161209d565b92505060206123be85828601612373565b9150509250929050565b600067ffffffffffffffff8211156123e3576123e26120fc565b5b6123ec82611f5b565b9050602081019050919050565b600061240c612407846123c8565b61215c565b905082815260208101848484011115612428576124276120f7565b5b6124338482856121a8565b509392505050565b600082601f8301126124505761244f6120f2565b5b81356124608482602086016123f9565b91505092915050565b6000806000806080858703121561248357612482611e50565b5b60006124918782880161209d565b94505060206124a28782880161209d565b93505060406124b387828801611fe8565b925050606085013567ffffffffffffffff8111156124d4576124d3611e55565b5b6124e08782880161243b565b91505092959194509250565b6000806040838503121561250357612502611e50565b5b60006125118582860161209d565b92505060206125228582860161209d565b9150509250929050565b600060608201905081810360008301526125468186611f6c565b9050818103602083015261255a8185611f6c565b905061256960408301846122b2565b949350505050565b7f4e487b7100000000000000000000000000000000000000000000000000000000600052602260045260246000fd5b600060028204905060018216806125b857607f821691505b6020821081036125cb576125ca612571565b5b50919050565b7f4552433732313a20617070726f76616c20746f2063757272656e74206f776e6560008201527f7200000000000000000000000000000000000000000000000000000000000000602082015250565b600061262d602183611f20565b9150612638826125d1565b604082019050919050565b6000602082019050818103600083015261265c81612620565b9050919050565b7f4552433732313a20617070726f76652063616c6c6572206973206e6f7420746f60008201527f6b656e206f776e6572206f7220617070726f76656420666f7220616c6c000000602082015250565b60006126bf603d83611f20565b91506126ca82612663565b604082019050919050565b600060208201905081810360008301526126ee816126b2565b9050919050565b7f70726f6a656374206e616d652063616e6e6f7420626520656d70747900000000600082015250565b600061272b601c83611f20565b9150612736826126f5565b602082019050919050565b6000602082019050818103600083015261275a8161271e565b9050919050565b7f616d6f756e742073686f756c64206e6f74206265207a65726f206f72206e656760008201527f61746976652e0000000000000000000000000000000000000000000000000000602082015250565b60006127bd602683611f20565b91506127c882612761565b604082019050919050565b600060208201905081810360008301526127ec816127b0565b9050919050565b60008190508160005260206000209050919050565b60006020601f8301049050919050565b600082821b905092915050565b6000600883026128557fffffffffffffffffffffffffffffffffffffffffffffffffffffffffffffffff82612818565b61285f8683612818565b95508019841693508086168417925050509392505050565b6000819050919050565b600061289c61289761289284611fc7565b612877565b611fc7565b9050919050565b6000819050919050565b6128b683612881565b6128ca6128c2826128a3565b848454612825565b825550505050565b600090565b6128df6128d2565b6128ea8184846128ad565b505050565b5b8181101561290e576129036000826128d7565b6001810190506128f0565b5050565b601f82111561295357612924816127f3565b61292d84612808565b8101602085101561293c578190505b61295061294885612808565b8301826128ef565b50505b505050565b600082821c905092915050565b600061297660001984600802612958565b1980831691505092915050565b600061298f8383612965565b9150826002028217905092915050565b6129a882611f15565b67ffffffffffffffff8111156129c1576129c06120fc565b5b6129cb82546125a0565b6129d6828285612912565b600060209050601f831160018114612a0957600084156129f7578287015190505b612a018582612983565b865550612a69565b601f198416612a17866127f3565b60005b82811015612a3f57848901518255600182019150602085019450602081019050612a1a565b86831015612a5c5784890151612a58601f891682612965565b8355505b6001600288020188555050505b505050505050565b7f4e487b7100000000000000000000000000000000000000000000000000000000600052601160045260246000fd5b6000612aab82611fc7565b91507fffffffffffffffffffffffffffffffffffffffffffffffffffffffffffffffff8203612add57612adc612a71565b5b600182019050919050565b7f4552433732313a2063616c6c6572206973206e6f7420746f6b656e206f776e6560008201527f72206f7220617070726f76656400000000000000000000000000000000000000602082015250565b6000612b44602d83611f20565b9150612b4f82612ae8565b604082019050919050565b60006020820190508181036000830152612b7381612b37565b9050919050565b7f4552433732313a20696e76616c696420746f6b656e2049440000000000000000600082015250565b6000612bb0601883611f20565b9150612bbb82612b7a565b602082019050919050565b60006020820190508181036000830152612bdf81612ba3565b9050919050565b7f4552433732313a2061646472657373207a65726f206973206e6f74206120766160008201527f6c6964206f776e65720000000000000000000000000000000000000000000000602082015250565b6000612c42602983611f20565b9150612c4d82612be6565b604082019050919050565b60006020820190508181036000830152612c7181612c35565b9050919050565b600081905092915050565b6000612c8e82611f15565b612c988185612c78565b9350612ca8818560208601611f31565b80840191505092915050565b6000612cc08285612c83565b9150612ccc8284612c83565b91508190509392505050565b7f4f776e61626c653a206e6577206f776e657220697320746865207a65726f206160008201527f6464726573730000000000000000000000000000000000000000000000000000602082015250565b6000612d34602683611f20565b9150612d3f82612cd8565b604082019050919050565b60006020820190508181036000830152612d6381612d27565b9050919050565b7f4552433732313a207472616e736665722066726f6d20696e636f72726563742060008201527f6f776e6572000000000000000000000000000000000000000000000000000000602082015250565b6000612dc6602583611f20565b9150612dd182612d6a565b604082019050919050565b60006020820190508181036000830152612df581612db9565b9050919050565b7f4552433732313a207472616e7366657220746f20746865207a65726f2061646460008201527f7265737300000000000000000000000000000000000000000000000000000000602082015250565b6000612e58602483611f20565b9150612e6382612dfc565b604082019050919050565b60006020820190508181036000830152612e8781612e4b565b9050919050565b7f4f776e61626c653a2063616c6c6572206973206e6f7420746865206f776e6572600082015250565b6000612ec4602083611f20565b9150612ecf82612e8e565b602082019050919050565b60006020820190508181036000830152612ef381612eb7565b9050919050565b7f4552433732313a20617070726f766520746f2063616c6c657200000000000000600082015250565b6000612f30601983611f20565b9150612f3b82612efa565b602082019050919050565b60006020820190508181036000830152612f5f81612f23565b9050919050565b7f4552433732313a207472616e7366657220746f206e6f6e20455243373231526560008201527f63656976657220696d706c656d656e7465720000000000000000000000000000602082015250565b6000612fc2603283611f20565b9150612fcd82612f66565b604082019050919050565b60006020820190508181036000830152612ff181612fb5565b9050919050565b600081519050919050565b600082825260208201905092915050565b600061301f82612ff8565b6130298185613003565b9350613039818560208601611f31565b61304281611f5b565b840191505092915050565b6000608082019050613062600083018761205c565b61306f602083018661205c565b61307c60408301856122b2565b818103606083015261308e8184613014565b905095945050505050565b6000815190506130a881611e86565b92915050565b6000602082840312156130c4576130c3611e50565b5b60006130d284828501613099565b91505092915050565b7f4e487b7100000000000000000000000000000000000000000000000000000000600052601260045260246000fd5b7f4552433732313a206d696e7420746f20746865207a65726f2061646472657373600082015250565b6000613140602083611f20565b915061314b8261310a565b602082019050919050565b6000602082019050818103600083015261316f81613133565b9050919050565b7f4552433732313a20746f6b656e20616c7265616479206d696e74656400000000600082015250565b60006131ac601c83611f20565b91506131b782613176565b602082019050919050565b600060208201905081810360008301526131db8161319f565b905091905056fea2646970667358221220d9f1ca5bf142bdfed06851755339ddec81d9ea406b8f7c851c52fed0447e4f0864736f6c63430008140033",
  "linkReferences": {},
  "deployedLinkReferences": {}
}