{
  "_format": "hh-sol-artifact-1",
  "contractName": "Marketplace",
  "sourceName": "contracts/Marketplace.sol",
  "abi": [
    {
      "anonymous": false,
      "inputs": [
        {
          "indexed": false,
          "internalType": "uint256",
          "name": "listingId",
          "type": "uint256"
        },
        {
          "indexed": false,
          "internalType": "address",
          "name": "seller",
          "type": "address"
        },
        {
          "indexed": false,
          "internalType": "address",
          "name": "nftContract",
          "type": "address"
        },
        {
          "indexed": false,
          "internalType": "uint256",
          "name": "tokenId",
          "type": "uint256"
        },
        {
          "indexed": false,
          "internalType": "uint256",
          "name": "price",
          "type": "uint256"
        }
      ],
      "name": "Listed",
      "type": "event"
    },
    {
      "anonymous": false,
      "inputs": [
        {
          "indexed": false,
          "internalType": "uint256",
          "name": "listingId",
          "type": "uint256"
        },
        {
          "indexed": false,
          "internalType": "address",
          "name": "buyer",
          "type": "address"
        }
      ],
      "name": "Purchased",
      "type": "event"
    },
    {
      "inputs": [
        {
          "internalType": "uint256",
          "name": "_listingId",
          "type": "uint256"
        }
      ],
      "name": "buyToken",
      "outputs": [],
      "stateMutability": "payable",
      "type": "function"
    },
    {
      "inputs": [
        {
          "internalType": "address",
          "name": "nftContract",
          "type": "address"
        },
        {
          "internalType": "uint256",
          "name": "tokenId",
          "type": "uint256"
        },
        {
          "internalType": "uint256",
          "name": "price",
          "type": "uint256"
        }
      ],
      "name": "listToken",
      "outputs": [],
      "stateMutability": "nonpayable",
      "type": "function"
    },
    {
      "inputs": [],
      "name": "listingId",
      "outputs": [
        {
          "internalType": "uint256",
          "name": "",
          "type": "uint256"
        }
      ],
      "stateMutability": "view",
      "type": "function"
    },
    {
      "inputs": [
        {
          "internalType": "uint256",
          "name": "",
          "type": "uint256"
        }
      ],
      "name": "listings",
      "outputs": [
        {
          "internalType": "address",
          "name": "seller",
          "type": "address"
        },
        {
          "internalType": "address",
          "name": "nftContract",
          "type": "address"
        },
        {
          "internalType": "uint256",
          "name": "tokenId",
          "type": "uint256"
        },
        {
          "internalType": "uint256",
          "name": "price",
          "type": "uint256"
        }
      ],
      "stateMutability": "view",
      "type": "function"
    }
  ],
  "bytecode": "0x608060405234801561001057600080fd5b506001600081905550610a27806100286000396000f3fe60806040526004361061003f5760003560e01c80632d296bf1146100445780637e07590d146100605780639405dfdd14610089578063de74e57b146100b4575b600080fd5b61005e60048036038101906100599190610682565b6100f4565b005b34801561006c57600080fd5b506100876004803603810190610082919061070d565b6103a4565b005b34801561009557600080fd5b5061009e610578565b6040516100ab919061076f565b60405180910390f35b3480156100c057600080fd5b506100db60048036038101906100d69190610682565b61057e565b6040516100eb9493929190610799565b60405180910390f35b6100fc6105ee565b6000600260008381526020019081526020016000206040518060800160405290816000820160009054906101000a900473ffffffffffffffffffffffffffffffffffffffff1673ffffffffffffffffffffffffffffffffffffffff1673ffffffffffffffffffffffffffffffffffffffff1681526020016001820160009054906101000a900473ffffffffffffffffffffffffffffffffffffffff1673ffffffffffffffffffffffffffffffffffffffff1673ffffffffffffffffffffffffffffffffffffffff1681526020016002820154815260200160038201548152505090508060600151341015610225576040517f08c379a000000000000000000000000000000000000000000000000000000000815260040161021c9061083b565b60405180910390fd5b60026000838152602001908152602001600020600080820160006101000a81549073ffffffffffffffffffffffffffffffffffffffff02191690556001820160006101000a81549073ffffffffffffffffffffffffffffffffffffffff0219169055600282016000905560038201600090555050806020015173ffffffffffffffffffffffffffffffffffffffff166323b872dd303384604001516040518463ffffffff1660e01b81526004016102de9392919061085b565b600060405180830381600087803b1580156102f857600080fd5b505af115801561030c573d6000803e3d6000fd5b50505050806000015173ffffffffffffffffffffffffffffffffffffffff166108fc82606001519081150290604051600060405180830381858888f1935050505015801561035e573d6000803e3d6000fd5b507fb47c52a971a941c629c2f7690d2a3bd407390d3c8eabc35473c70883a3d5da168233604051610390929190610892565b60405180910390a1506103a161063d565b50565b8273ffffffffffffffffffffffffffffffffffffffff166323b872dd3330856040518463ffffffff1660e01b81526004016103e19392919061085b565b600060405180830381600087803b1580156103fb57600080fd5b505af115801561040f573d6000803e3d6000fd5b5050505060405180608001604052803373ffffffffffffffffffffffffffffffffffffffff1681526020018473ffffffffffffffffffffffffffffffffffffffff1681526020018381526020018281525060026000600154815260200190815260200160002060008201518160000160006101000a81548173ffffffffffffffffffffffffffffffffffffffff021916908373ffffffffffffffffffffffffffffffffffffffff16021790555060208201518160010160006101000a81548173ffffffffffffffffffffffffffffffffffffffff021916908373ffffffffffffffffffffffffffffffffffffffff16021790555060408201518160020155606082015181600301559050507f723f73331eaee88eec7fc68ef60ab6ed15e4b90d0472b55eb92fa43910bab6dd600154338585856040516105539594939291906108bb565b60405180910390a16001600081548092919061056e9061093d565b9190505550505050565b60015481565b60026020528060005260406000206000915090508060000160009054906101000a900473ffffffffffffffffffffffffffffffffffffffff16908060010160009054906101000a900473ffffffffffffffffffffffffffffffffffffffff16908060020154908060030154905084565b600260005403610633576040517f08c379a000000000000000000000000000000000000000000000000000000000815260040161062a906109d1565b60405180910390fd5b6002600081905550565b6001600081905550565b600080fd5b6000819050919050565b61065f8161064c565b811461066a57600080fd5b50565b60008135905061067c81610656565b92915050565b60006020828403121561069857610697610647565b5b60006106a68482850161066d565b91505092915050565b600073ffffffffffffffffffffffffffffffffffffffff82169050919050565b60006106da826106af565b9050919050565b6106ea816106cf565b81146106f557600080fd5b50565b600081359050610707816106e1565b92915050565b60008060006060848603121561072657610725610647565b5b6000610734868287016106f8565b93505060206107458682870161066d565b92505060406107568682870161066d565b9150509250925092565b6107698161064c565b82525050565b60006020820190506107846000830184610760565b92915050565b610793816106cf565b82525050565b60006080820190506107ae600083018761078a565b6107bb602083018661078a565b6107c86040830185610760565b6107d56060830184610760565b95945050505050565b600082825260208201905092915050565b7f4e6f7420656e6f75676820455448000000000000000000000000000000000000600082015250565b6000610825600e836107de565b9150610830826107ef565b602082019050919050565b6000602082019050818103600083015261085481610818565b9050919050565b6000606082019050610870600083018661078a565b61087d602083018561078a565b61088a6040830184610760565b949350505050565b60006040820190506108a76000830185610760565b6108b4602083018461078a565b9392505050565b600060a0820190506108d06000830188610760565b6108dd602083018761078a565b6108ea604083018661078a565b6108f76060830185610760565b6109046080830184610760565b9695505050505050565b7f4e487b7100000000000000000000000000000000000000000000000000000000600052601160045260246000fd5b60006109488261064c565b91507fffffffffffffffffffffffffffffffffffffffffffffffffffffffffffffffff820361097a5761097961090e565b5b600182019050919050565b7f5265656e7472616e637947756172643a207265656e7472616e742063616c6c00600082015250565b60006109bb601f836107de565b91506109c682610985565b602082019050919050565b600060208201905081810360008301526109ea816109ae565b905091905056fea26469706673582212208b4334f91097378926c8b3e6d82cfa29950ba6da976d9fd9ea5f44f5f90c256264736f6c63430008140033",
  "linkReferences": {},
  "deployedLinkReferences": {}
}